:100000000C945D000C9485000C9485000C94850084
:100010000C9485000C9485000C9485000C9485004C
:100020000C9485000C9485000C9485000C9485003C
:100030000C9485000C9485000C9485000C9485002C
:100040000C94A1020C9485000C9411030C94EB0207
:100050000C9485000C9485000C9485000C9485000C
:100060000C9485000C9485000000000024002700FB
:100070002A0000000000250028002B0004040404CE
:100080000404040402020202020203030303030342
:10009000010204081020408001020408102001021F
:1000A00004081020000000080002010000030407FB
:1000B0000000000000000000570411241FBECFEF15
:1000C000D8E0DEBFCDBF11E0A0E0B1E0E8E1F9E0AB
:1000D00002C005900D92A832B107D9F721E0A8E23D
:1000E000B1E001C01D92AE3CB207E1F710E0CDE5F2
:1000F000D0E004C02197FE010E948404CC35D107D2
:10010000C9F70E9443030C948A040C94000090E009
:10011000FC01EC55FF4F2491FC01E057FF4F349157
:10012000FC01E458FF4FE491EE23C9F0222339F09B
:10013000233001F1A8F4213019F1223029F1F0E047
:10014000EE0FFF1FEE58FF4FA591B4918FB7F894B3
:10015000EC91611126C030953E233C938FBF0895EA
:100160002730A9F02830C9F0243049F78091800069
:100170008F7D03C0809180008F7780938000DFCFD8
:1001800084B58F7784BDDBCF84B58F7DFBCF809125
:10019000B0008F778093B000D2CF8091B0008F7D78
:1001A000F9CF3E2BDACFCF93DF9390E0FC01E057FD
:1001B000FF4F249184589F4FFC0184918823D1F0F4
:1001C00090E0880F991FFC01E859FF4FA591B49169
:1001D000FC01EE58FF4FC591D49161110EC09FB73D
:1001E000F8948C91E22FE0958E238C932881E22362
:1001F000E8839FBFDF91CF9108958FB7F894EC917A
:10020000E22BEC938FBFF6CF1F93CF93DF93182F82
:10021000EB0161E00E94D300209739F460E0812F68
:10022000DF91CF911F910C948700E12FF0E0EC5506
:10023000FF4FE491E33039F148F4E130B9F0E230B6
:10024000E9F0C038D10554F361E0E9CFE73029F196
:10025000E83059F1E430A9F7809180008062809302
:100260008000D0938B00C0938A0004C084B580685E
:1002700084BDC7BDDF91CF911F91089584B5806281
:1002800084BDC8BDF7CF80918000806880938000D6
:10029000D0938900C0938800EDCF8091B000806832
:1002A0008093B000C093B300E5CF8091B00080622E
:1002B0008093B000C093B400DDCF8E5080648093F3
:1002C0007C0080917A00806480937A0080917A002B
:1002D00086FDFCCF809178009091790008953FB71A
:1002E000F8948091CA019091CB01A091CC01B0917A
:1002F000CD0126B5A89B05C02F3F19F00196A11D81
:10030000B11D3FBFBA2FA92F982F8827BC01CD015F
:10031000620F711D811D911D42E0660F771F881FBE
:10032000991F4A95D1F70895AF92BF92CF92DF926D
:10033000EF92FF920F931F93CF93DF936C017B019A
:100340008B01040F151FEB015E01AE18BF08C0172B
:10035000D10759F06991D601ED91FC910190F0819E
:10036000E02DC6010995892B79F7C501DF91CF9161
:100370001F910F91FF90EF90DF90CF90BF90AF90C3
:100380000895FC01538D448D252F30E0842F90E09B
:10039000821B930B541710F0CF9608950197089580
:1003A000FC01918D828D981761F0A28DAE0FBF2F49
:1003B000B11D5D968C91928D9F5F9F73928F90E09F
:1003C00008958FEF9FEF0895FC01918D828D98170E
:1003D00031F0828DE80FF11D858D90E008958FEF4B
:1003E0009FEF0895FC01918D228D892F90E0805C14
:1003F0009F4F821B91098F739927089588E291E09E
:100400000E94F20121E0892B09F420E0822F089557
:1004100080E090E0892B29F00E94FE0181110C946C
:1004200000000895FC01A48DA80FB92FB11DA35A97
:10043000BF4F2C91848D90E001968F739927848F04
:10044000A689B7892C93A089B1898C918370806427
:100450008C93938D848D981306C00288F389E02DC8
:1004600080818F7D80830895EF92FF920F931F9379
:10047000CF93DF93EC0181E0888F9B8D8C8D981357
:100480001AC0E889F989808185FF15C09FB7F89463
:10049000EE89FF896083E889F989808183708064AF
:1004A00080839FBF81E090E0DF91CF911F910F91FA
:1004B000FF90EF900895F62E0B8D10E00F5F1F4F09
:1004C0000F731127E02E8C8D8E110CC00FB607FC18
:1004D000FACFE889F989808185FFF5CFCE010E94A6
:1004E0001202F1CFEB8DEC0FFD2FF11DE35AFF4F00
:1004F000F0829FB7F8940B8FEA89FB898081806234
:10050000CFCFCF93DF93EC01888D8823B9F0AA89F0
:10051000BB89E889F9898C9185FD03C0808186FDBE
:100520000DC00FB607FCF7CF8C9185FFF2CF80810D
:1005300085FFEDCFCE010E941202E9CFDF91CF916E
:1005400008951F920F920FB60F9211242F933F938D
:100550008F939F93AF93BF938091C6019091C701F2
:10056000A091C801B091C9013091C50123E0230FCA
:100570002D3758F50196A11DB11D2093C50180931B
:10058000C6019093C701A093C801B093C90180919F
:10059000CA019091CB01A091CC01B091CD010196FF
:1005A000A11DB11D8093CA019093CB01A093CC01F2
:1005B000B093CD01BF91AF919F918F913F912F91BA
:1005C0000F900FBE0F901F90189526E8230F0296EC
:1005D000A11DB11DD2CF1F920F920FB60F92112401
:1005E0002F933F934F935F936F937F938F939F933B
:1005F000AF93BF93EF93FF9388E291E00E941202C2
:10060000FF91EF91BF91AF919F918F917F916F91EA
:100610005F914F913F912F910F900FBE0F901F90C0
:1006200018951F920F920FB60F9211242F938F934C
:100630009F93EF93FF93E0913801F091390180810E
:10064000E0913E01F0913F0182FD1BC090818091BD
:1006500041018F5F8F7320914201821741F0E09139
:100660004101F0E0E85DFE4F958F80934101FF91DD
:10067000EF919F918F912F910F900FBE0F901F9030
:1006800018958081F4CF789484B5826084BD84B558
:10069000816084BD85B5826085BD85B5816085BD7D
:1006A00080916E00816080936E0010928100809135
:1006B00081008260809381008091810081608093BD
:1006C0008100809180008160809380008091B100E2
:1006D00084608093B1008091B00081608093B0000D
:1006E00080917A00846080937A0080917A008260A1
:1006F00080937A0080917A00816080937A00809163
:100700007A00806880937A001092C10061E085E0F1
:100710000E94D30061E084E00E94D30061E086E0A3
:100720000E94D30061E087E00E94D30060E08EE089
:100730000E94D30060E08FE00E94D30060E080E17F
:100740000E94D300E0913801F091390182E080836A
:10075000E0913401F09135011082E0913601F09181
:1007600037018FEC808310924001E0913C01F091C1
:100770003D0186E08083E0913A01F0913B01808168
:1007800080618083E0913A01F0913B018081886033
:100790008083E0913A01F0913B0180818068808301
:1007A000E0913A01F0913B0180818F7D808341E1AE
:1007B00050E062E171E088E291E00E94940142E041
:1007C00050E064E271E088E291E00E949401C0E0B0
:1007D000D0E08EE00E945D017C018FE00E945D010F
:1007E0006C0180E10E945D0161E025EFC21621E00D
:1007F000D2063CF425EFE21621E0F2060CF441C0EB
:1008000060E084E00E94870066E970E085E00E9475
:10081000040161E087E00E94870066E970E086E0FD
:100820000E9404010E946F014B015C018AE0C82E06
:10083000D12CE12CF12C0E946F01681979098A09E9
:100840009B09683E734081059105A8F381E0C81AB1
:10085000D108E108F10828EE820E23E0921EA11CC7
:10086000B11CC114D104E104F10429F7209709F463
:10087000B0CF0E94FE01882309F4ABCF0E94000094
:10088000A8CF853F91405CF061E084E00E94870042
:1008900066E970E085E00E94040160E0BBCF70E093
:1008A00060E085E00E94040170E060E0B8CFE8E21B
:1008B000F1E01382128288EE93E0A0E0B0E084833E
:1008C0009583A683B78384E091E09183808385EC50
:1008D00090E09587848784EC90E09787868780EC0A
:1008E00090E0918B808B81EC90E0938B828B82ECFB
:1008F00090E0958B848B86EC90E0978B868B118EA5
:10090000128E138E148E0895EE0FFF1F0590F49132
:08091000E02D0994F894FFCFDB
:100918000000000034029401C1018102F201D001FB
:10092800E401526F626F7420496E697469616C6981
:080938007A6564000D0A00005D
:00000001FF
